:100000000C9455000C9467000C9467000C946700E6
:100010000C9467000C94B0010C9467000C9467007A
:100020000C9467000C94D9010C9467000C940202A4
:100030000C9467000C9467000C9467000C946700A4
:100040000C9467000C9467000C9467000C94670094
:100050000C9467004E050306030603065B0568055E
:1000600003067505DD0582058F059C05A905B60506
:10007000C305D005EA05F70594069F06AA06B5064E
:10008000C006CB06D606F806FB06FF062C072C0793
:100090000207050708070C070F07120716071907BD
:1000A0001C07200723072607290711241FBECFE5B9
:1000B000D8E0DEBFCDBF20E0A0E6B0E001C01D92D9
:1000C000A936B207E1F70E942B020C94EB070C94BF
:1000D0000000CF93DF93843078F4683078F4D62F23
:1000E000C82F0E948201813059F46D2F8C2F0E94FD
:1000F0008201813039F407C08FEF05C08FEF03C054
:1001000080E001C080E0DF91CF9108954130C1F5DA
:10011000813091F028F08230D9F0833029F16EC01F
:100120002AB381E090E002C0880F991F6A95E2F738
:10013000822B8ABB81E0089527B381E090E002C062
:10014000880F991F6A95E2F7822B87BB81E008959B
:1001500024B381E090E002C0880F991F6A95E2F70E
:10016000822B84BB81E0089521B381E090E002C03E
:10017000880F991F6A95E2F7822B81BB81E0089571
:1001800041113EC0813099F028F08230E9F083308F
:1001900041F138C02AB381E090E002C0880F991F76
:1001A0006A95E2F7809582238ABB81E0089527B3A0
:1001B00081E090E002C0880F991F6A95E2F7809570
:1001C000822387BB81E0089524B381E090E002C0E0
:1001D000880F991F6A95E2F78095822384BB81E09E
:1001E000089521B381E090E002C0880F991F6A95BD
:1001F000E2F78095822381BB81E008958FEF089517
:100200008FEF08958FEF08954130C1F5813091F05F
:1002100028F08230D9F0833029F16EC02BB381E011
:1002200090E002C0880F991F6A95E2F7822B8BBB82
:1002300081E0089528B381E090E002C0880F991F03
:100240006A95E2F7822B88BB81E0089525B381E0AF
:1002500090E002C0880F991F6A95E2F7822B85BB58
:1002600081E0089522B381E090E002C0880F991FD9
:100270006A95E2F7822B82BB81E0089541113EC06E
:10028000813099F028F08230E9F0833041F138C0B4
:100290002BB381E090E002C0880F991F6A95E2F7C6
:1002A000809582238BBB81E0089528B381E090E0A4
:1002B00002C0880F991F6A95E2F78095822388BB58
:1002C00081E0089525B381E090E002C0880F991F76
:1002D0006A95E2F78095822385BB81E0089522B379
:1002E00081E090E002C0880F991F6A95E2F780953F
:1002F000822382BB81E008958FEF08958FEF0895E8
:100300008FEF0895813079F028F08230A9F08330A2
:10031000E1F024C089B390E002C0959587956A9575
:10032000E2F78170089586B390E002C095958795B5
:100330006A95E2F78170089583B390E002C09595C5
:1003400087956A95E2F78170089580B390E002C0C6
:10035000959587956A95E2F7817008958FEF0895D6
:100360001F920F920FB60F9211242F933F934F932A
:100370005F936F937F938F939F93AF93BF93EF930D
:10038000FF93E0916400F0916500309709F00995C2
:10039000FF91EF91BF91AF919F918F917F916F915D
:1003A0005F914F913F912F910F900FBE0F901F9033
:1003B00018951F920F920FB60F9211242F933F930F
:1003C0004F935F936F937F938F939F93AF93BF935D
:1003D000EF93FF93E0916200F0916300309709F092
:1003E0000995FF91EF91BF91AF919F918F917F916F
:1003F0006F915F914F913F912F910F900FBE0F9092
:100400001F9018951F920F920FB60F9211242F93E1
:100410003F934F935F936F937F938F939F93AF938C
:10042000BF93EF93FF93E0916000F09161003097EC
:1004300009F00995FF91EF91BF91AF919F918F9135
:100440007F916F915F914F913F912F910F900FBED0
:100450000F901F9018950E9430020E94AE03FDCFAE
:1004600040E060E082E00E94860040E061E082E0DF
:100470000E94860040E062E082E00E94860040E048
:1004800063E082E00E94860041E067E083E00E9432
:10049000860041E063E081E00E94860041E060E088
:1004A00080E00E94860041E061E080E00E948600DA
:1004B00041E062E080E00E94860041E063E080E08D
:1004C0000E94860008956DE470E081E10E94EF06CD
:1004D00063E080E00E942E0726E030E040E050E03C
:1004E00063E080E00E94AE046DE470E080E10E9471
:1004F000EF0663E082E00E942E0726E030E040E055
:1005000050E063E082E00E94AE0481E080936800E6
:1005100008956AE970E081E10E94EF0663E080E0FF
:100520000E942E0726E030E040E050E063E080E0EB
:100530000E94AE046AE970E080E10E94EF0663E089
:1005400082E00E942E0726E030E040E050E063E0C9
:1005500082E00E94AE0481E080936800089566EE18
:1005600070E081E10E94EF0663E080E00E942E07C8
:1005700026E030E040E050E063E080E00E94AE041E
:1005800066EE70E080E10E94EF0663E082E00E9488
:100590002E0726E030E040E050E063E082E00E9479
:1005A000AE0481E08093680008956DE470E081E11D
:1005B0000E94EF0663E080E00E942E0726E030E014
:1005C00040E050E063E080E00E94AE046DE470E043
:1005D00080E10E94EF0663E082E00E942E0726E0A1
:1005E00030E040E050E063E082E00E94AE048FEF34
:1005F000809368000895809168008130A9F440E0FC
:1006000060E080E00E94040140E062E080E00E943F
:10061000040141E061E080E00E94040141E063E008
:1006200080E00E94040108958F3FA1F440E061E062
:1006300080E00E94040140E063E080E00E94040149
:1006400041E060E080E00E94040141E062E080E07F
:100650000E94040108956DE470E081E10E94EF06BC
:1006600063E080E00E942E0726E030E040E050E0AA
:1006700063E080E00E94AE046DE470E080E10E94DF
:10068000EF0663E082E00E942E0726E030E040E0C3
:1006900050E063E082E00E94AE0440E061E080E070
:1006A0000E94040140E062E080E00E94040141E019
:1006B00063E080E00E94040141E060E080E00E948D
:1006C000040108956DE470E081E10E94EF0663E0AB
:1006D00080E00E942E0726E030E040E050E063E03A
:1006E00080E00E94AE046DE470E080E10E94EF06BD
:1006F00063E082E00E942E0726E030E040E050E018
:1007000063E082E00E94AE0440E063E080E00E948B
:10071000040140E060E080E00E94040141E061E00B
:1007200080E00E94040141E062E080E00E94040158
:10073000089540E063E080E00E94040140E060E052
:1007400080E00E94040140E061E080E00E9404013A
:1007500040E062E080E00E9404010895809166001C
:1007600081119EC0809167008230F1F128F48823C6
:1007700051F08130D1F00895833009F454C08430B1
:1007800009F470C0089560E082E00E946900813041
:1007900009F0E3C0809367000E94630260E082E09A
:1007A0000E9469008130D1F3089560E082E00E94E8
:1007B0006900813061F482E0809367000E948902C1
:1007C00060E082E00E9469008130D1F3089561E029
:1007D00082E00E946900813009F0BFC082E080930E
:1007E00066000E94FB02089560E082E00E946900BA
:1007F000813061F483E0809367000E94AF0260E083
:1008000082E00E9469008130D1F3089561E082E0C6
:100810000E946900813009F0A0C082E080936600E8
:100820000E94FB02089560E082E00E94690081302E
:1008300061F484E0809367000E94D50260E082E06A
:100840000E9469008130D1F3089561E082E00E9446
:100850006900813009F081C082E0809366000E94C7
:10086000FB02089560E082E00E946900813059F443
:10087000809367000E94630260E082E00E9469004A
:100880008130D1F3089561E082E00E9469008130F7
:1008900009F063C082E0809366000E94FB02089525
:1008A000813099F561E082E00E946900813031F485
:1008B00082E0809366000E94FB02089562E082E07D
:1008C0000E946900813031F484E0809366000E94C8
:1008D0002B03089563E082E00E946900813031F4C7
:1008E00083E0809366000E946203089560E082E0E6
:1008F0000E946900813089F51092660060E082E014
:100900000E9469008130D1F30895823059F461E08A
:100910000E946900811121C081E0809366000E94DD
:1009200099030895833061F463E082E00E946900D6
:10093000811113C081E0809366000E94990308959D
:10094000843059F462E082E00E946900811105C0A0
:1009500081E0809366000E9499030895833008F037
:1009600030C2623108F02FC2813009F48CC020F00F
:10097000823009F4ACC129C2613069F028F06230DC
:1009800089F06330B1F023C283B7877F83BF83B719
:100990008F7B83BF14C083B7877F83BF83B7806497
:1009A00083BF0DC083B7886083BF83B78F7B83BF4E
:1009B00006C083B7886083BF83B7806483BF23305A
:1009C00031054105510599F158F4211531054105CD
:1009D0005105B9F02130310541055105E9F0F9C162
:1009E0002630310541055105C1F12730310541055A
:1009F0005105F1F1253031054105510509F0E9C1F5
:100A000021C083B7816083BF83B78D7F83BF83B7E6
:100A10008B7F83BF8FEF089583B78E7F83BF83B7AC
:100A2000826083BF83B78B7F83BF81E0089583B7E4
:100A30008E7F83BF83B7826083BF83B7846083BFA9
:100A400081E0089583B78E7F83BF83B78D7F83BF97
:100A500083B7846083BF81E0089583B7816083BFDB
:100A600083B78D7F83BF83B7846083BF81E00895A0
:100A700083B78E7F83BF83B78D7F83BF83B78B7F21
:100A800083BF81E00895862F90E08231910508F0C0
:100A9000BAC0FC01E65DFF4F0C94E5078FB58E7F71
:100AA0008FBD8FB58D7F8FBD8EB5877F8EBD8EB587
:100AB0008F7E8EBDA8C08FB581608FBD8FB58D7FB5
:100AC0008FBD8EB5877F8EBD8EB58F7E8EBD9BC050
:100AD0008FB58E7F8FBD8FB582608FBD8EB5877FBE
:100AE0008EBD8EB58F7E8EBD8EC08FB581608FBD61
:100AF0008FB582608FBD8EB5877F8EBD8EB58F7EA0
:100B00008EBD81C08FB58E7F8FBD8FB58D7F8FBD20
:100B10008EB588608EBD8EB58F7E8EBD74C08FB54C
:100B200081608FBD8FB58D7F8FBD8EB588608EBD86
:100B30008EB58F7E8EBD67C08FB58E7F8FBD8FB512
:100B400082608FBD8EB588608EBD8EB58F7E8EBD66
:100B50005AC08FB581608FBD8FB582608FBD8EB555
:100B600088608EBD8EB58F7E8EBD4DC08FB58E7F59
:100B70008FBD8FB58D7F8FBD8EB5877F8EBD8EB5B6
:100B800080618EBD40C08FB581608FBD8FB58D7F78
:100B90008FBD8EB5877F8EBD8EB580618EBD33C013
:100BA0008FB581608FBD8FB582608FBD8EB5877F19
:100BB0008EBD8EB580618EBD26C08FB58E7F8FBDF8
:100BC0008FB58D7F8FBD8EB588608EBD8EB58061EF
:100BD0008EBD19C08FB58E7F8FBD8FB582608FBDE2
:100BE0008EB588608EBD8EB580618EBD0CC08FB510
:100BF00081608FBD8FB582608FBD8EB588608EBDE0
:100C00008EB580618EBD233031054105510599F1C6
:100C100058F42115310541055105B9F02130310550
:100C200041055105E9F0D7C0263031054105510590
:100C3000C1F12730310541055105F1F1253031056C
:100C40004105510509F0C7C021C08EB581608EBD38
:100C50008EB58D7F8EBD8EB58B7F8EBD81E0089564
:100C60008EB58E7F8EBD8EB582608EBD8EB58B7F2C
:100C70008EBD81E008958EB581608EBD8EB5826097
:100C80008EBD8EB58B7F8EBD81E008958EB58E7F33
:100C90008EBD8EB58D7F8EBD8EB584608EBD81E09C
:100CA00008958EB581608EBD8EB58D7F8EBD8EB55B
:100CB00084608EBD81E008958EB58E7F8EBD8EB529
:100CC0008D7F8EBD8EB58B7F8EBD81E008956130A6
:100CD00069F028F0623089F06330B1F01BC085B54F
:100CE000877F85BD85B58F7B85BD14C085B5877F22
:100CF00085BD85B5806485BD0DC085B5886085BD21
:100D000085B58F7B85BD06C085B5886085BD85B5F9
:100D1000806485BDF9013197E730F10508F05DC0C9
:100D2000E45CFF4F0C94E50785B58E7F85BD85B5E6
:100D3000826085BD85B58B7F85BD81E0089585B5D1
:100D4000816085BD85B5826085BD85B58B7F85BD9C
:100D500081E0089585B58E7F85BD85B58D7F85BD84
:100D600085B5846085BD81E0089585B5816085BDC8
:100D700085B58D7F85BD85B5846085BD81E008958D
:100D800085B58E7F85BD85B5826085BD85B584605E
:100D900085BD81E0089585B5816085BD85B582609A
:100DA00085BD85B5846085BD81E0089585B58E7F5C
:100DB00085BD85B58D7F85BD85B58B7F85BD81E082
:100DC00008958FEF08958FEF08958FEF08958FEFB7
:100DD00008958FEF08958FEF08958FEF089590E0B5
:100DE00082319105C8F5FC01ED5BFF4F0C94E507DE
:100DF00062BF81E008957DBD6CBD81E0089564BD52
:100E000081E008956DBD81E008956CBD81E0089595
:100E10007BBD6ABD81E008956BBD81E008956ABD28
:100E200081E0089579BD68BD81E0089569BD81E0E4
:100E3000089568BD81E0089577BD66BD81E008959D
:100E400067BD81E0089566BD81E0089563BD81E0DE
:100E500008956CBF81E008958FEF0895823009F402
:100E600082C018F4882339F0A6C0833061F1843041
:100E700009F451C0A0C0613071F028F0623099F0DF
:100E80006330C9F09AC083B78F7E83BF83B78F7DED
:100E900083BF81E0089583B7806183BF83B78F7D6F
:100EA00083BF81E0089583B78F7E83BF83B780625D
:100EB00083BF81E0089583B7806183BF83B7806279
:100EC00083BF81E00895613071F028F0623099F0BD
:100ED0006330C9F074C08FB58F7B8FBD8FB58F77AE
:100EE0008FBD81E008958FB580648FBD8FB58F77FA
:100EF0008FBD81E008958FB58F7B8FBD8FB58068E2
:100F00008FBD81E008958FB580648FBD8FB58068F7
:100F10008FBD81E00895613071F028F0623099F062
:100F20006330C9F04EC08FB58F7E8FBD8FB58F7D7A
:100F30008FBD81E008958FB580618FBD8FB58F7DA6
:100F40008FBD81E008958FB58F7E8FBD8FB5806294
:100F50008FBD81E008958FB580618FBD8FB58062B0
:100F60008FBD81E00895613071F028F0623099F012
:100F70006330C9F028C085B58F7E85BD85B58F7D6E
:100F800085BD81E0089585B5806185BD85B58F7D7E
:100F900085BD81E0089585B58F7E85BD85B580626C
:100FA00085BD81E0089585B5806185BD85B5806288
:100FB00085BD81E008958FEF08958FEF08958FEF3D
:100FC00008958FEF08958FEF0895EE0FFF1F05909E
:0A0FD000F491E02D0994F894FFCF8E
:00000001FF
